:0400000000000000FC
:0400010000000000FB
:0400020000000000FA
:0400030000000000F9
:0400040000000000F8
:0400050000000000F7
:0400060000000000F6
:0400070000000000F5
:0400080000000000F4
:0400090000000000F3
:04000A0000000000F2
:04000B0000000000F1
:04000C0000000000F0
:04000D0000000000EF
:04000E0000000000EE
:04000F0000000000ED
:0400100000000000EC
:0400110000000000EB
:0400120000000000EA
:0400130000000000E9
:0400140000000000E8
:0400150000000000E7
:0400160000000000E6
:0400170000000000E5
:0400180000000000E4
:0400190000000000E3
:04001A0000000000E2
:04001B0000000000E1
:04001C0000000000E0
:04001D0000000000DF
:04001E0000000000DE
:04001F0000000000DD
:0400200000000000DC
:0400210000000000DB
:0400220000000000DA
:0400230000000000D9
:0400240000000000D8
:0400250000000000D7
:0400260000000000D6
:0400270000000000D5
:0400280000000000D4
:0400290000000000D3
:04002A0000000000D2
:04002B0000000000D1
:04002C0000000000D0
:04002D0000000000CF
:04002E0000000000CE
:04002F0000000000CD
:0400300000000000CC
:0400310000000000CB
:0400320000000000CA
:0400330000000000C9
:0400340000000000C8
:0400350000000000C7
:0400360000000000C6
:0400370000000000C5
:0400380000000000C4
:0400390000000000C3
:04003A0000000000C2
:04003B0000000000C1
:04003C0000000000C0
:04003D0000000000BF
:04003E0000000000BE
:04003F0000000000BD
:0400400000000000BC
:0400410000000000BB
:0400420000000000BA
:0400430000000000B9
:0400440000000000B8
:0400450000000000B7
:0400460000000000B6
:0400470000000000B5
:0400480000000000B4
:0400490000000000B3
:04004A0000000000B2
:04004B0000000000B1
:04004C0000000000B0
:04004D0000000000AF
:04004E0000000000AE
:04004F0000000000AD
:0400500000000000AC
:0400510000000000AB
:0400520000000000AA
:0400530000000000A9
:0400540000000000A8
:0400550000000000A7
:0400560000000000A6
:0400570000000000A5
:0400580000000000A4
:0400590000000000A3
:04005A0000000000A2
:04005B0000000000A1
:04005C0000000000A0
:04005D00000000009F
:04005E00000000009E
:04005F00000000009D
:04006000000000009C
:04006100000000009B
:04006200000000009A
:040063000000000099
:040064000000000098
:040065000000000097
:040066000000000096
:040067000000000095
:040068000000000094
:040069000000000093
:04006A000000000092
:04006B000000000091
:04006C000000000090
:04006D00000000008F
:04006E00000000008E
:04006F00000000008D
:04007000000000008C
:04007100000000008B
:04007200000000008A
:040073000000000089
:040074000000000088
:040075000000000087
:040076000000000086
:040077000000000085
:040078000000000084
:040079000000000083
:04007A000000000082
:04007B000000000081
:04007C000000000080
:04007D00000000007F
:04007E00000000007E
:04007F00000000007D
:04008000000000007C
:04008100000000007B
:04008200000000007A
:040083000000000079
:040084000000000078
:040085000000000077
:040086000000000076
:040087000000000075
:040088000000000074
:040089000000000073
:04008A000000000072
:04008B000000000071
:04008C000000000070
:04008D00000000006F
:04008E00000000006E
:04008F00000000006D
:04009000000000006C
:04009100000000006B
:04009200000000006A
:040093000000000069
:040094000000000068
:040095000000000067
:040096000000000066
:040097000000000065
:040098000000000064
:040099000000000063
:04009A000000000062
:04009B000000000061
:04009C000000000060
:04009D00000000005F
:04009E00000000005E
:04009F00000000005D
:0400A000000000005C
:0400A100000000005B
:0400A200000000005A
:0400A3000000000059
:0400A4000000000058
:0400A5000000000057
:0400A6000000000056
:0400A7000000000055
:0400A8000000000054
:0400A9000000000053
:0400AA000000000052
:0400AB000000000051
:0400AC000000000050
:0400AD00000000004F
:0400AE00000000004E
:0400AF00000000004D
:0400B000000000004C
:0400B100000000004B
:0400B200000000004A
:0400B3000000000049
:0400B4000000000048
:0400B5000000000047
:0400B6000000000046
:0400B7000000000045
:0400B8000000000044
:0400B9000000000043
:0400BA000000000042
:0400BB000000000041
:0400BC000000000040
:0400BD00000000003F
:0400BE00000000003E
:0400BF00000000003D
:0400C000000000003C
:0400C100000000003B
:0400C200000000003A
:0400C3000000000039
:0400C4000000000038
:0400C5000000000037
:0400C6000000000036
:0400C7000000000035
:0400C8000000000034
:0400C9000000000033
:0400CA000000000032
:0400CB000000000031
:0400CC000000000030
:0400CD00000000002F
:0400CE00000000002E
:0400CF00000000002D
:0400D000000000002C
:0400D100000000002B
:0400D200000000002A
:0400D3000000000029
:0400D4000000000028
:0400D5000000000027
:0400D6000000000026
:0400D7000000000025
:0400D8000000000024
:0400D9000000000023
:0400DA000000000022
:0400DB000000000021
:0400DC000000000020
:0400DD00000000001F
:0400DE00000000001E
:0400DF00000000001D
:0400E000000000001C
:0400E100000000001B
:0400E200000000001A
:0400E3000000000019
:0400E4000000000018
:0400E5000000000017
:0400E6000000000016
:0400E7000000000015
:0400E8000000000014
:0400E9000000000013
:0400EA000000000012
:0400EB000000000011
:0400EC000000000010
:0400ED00000000000F
:0400EE00000000000E
:0400EF00000000000D
:0400F000000000000C
:0400F100000000000B
:0400F200000000000A
:0400F3000000000009
:0400F4000000000008
:0400F5000000000007
:0400F6000000000006
:0400F7000000000005
:0400F8000000000004
:0400F9000000000003
:0400FA000000000002
:0400FB000000000001
:0400FC000000000000
:0400FD0000000000FF
:0400FE0000000000FE
:0400FF0000000000FD
:0401000000000000FB
:0401010000000000FA
:0401020000000000F9
:0401030000000000F8
:0401040000000000F7
:0401050000000000F6
:0401060000000000F5
:0401070000000000F4
:0401080000000000F3
:0401090000000000F2
:04010A0000000000F1
:04010B0000000000F0
:04010C0000000000EF
:04010D0000000000EE
:04010E0000000000ED
:04010F0000000000EC
:0401100000000000EB
:0401110000000000EA
:0401120000000000E9
:0401130000000000E8
:0401140000000000E7
:0401150000000000E6
:0401160000000000E5
:0401170000000000E4
:0401180000000000E3
:0401190000000000E2
:04011A0000000000E1
:04011B0000000000E0
:04011C0000000000DF
:04011D0000000000DE
:04011E0000000000DD
:04011F0000000000DC
:0401200000000000DB
:0401210000000000DA
:0401220000000000D9
:0401230000000000D8
:0401240000000000D7
:0401250000000000D6
:0401260000000000D5
:0401270000000000D4
:0401280000000000D3
:0401290000000000D2
:04012A0000000000D1
:04012B0000000000D0
:04012C0000000000CF
:04012D0000000000CE
:04012E0000000000CD
:04012F0000000000CC
:0401300000000000CB
:0401310000000000CA
:0401320000000000C9
:0401330000000000C8
:0401340000000000C7
:0401350000000000C6
:0401360000000000C5
:0401370000000000C4
:0401380000000000C3
:0401390000000000C2
:04013A0000000000C1
:04013B0000000000C0
:04013C0000000000BF
:04013D0000000000BE
:04013E0000000000BD
:04013F0000000000BC
:0401400000000000BB
:0401410000000000BA
:0401420000000000B9
:0401430000000000B8
:0401440000000000B7
:0401450000000000B6
:0401460000000000B5
:0401470000000000B4
:0401480000000000B3
:0401490000000000B2
:04014A0000000000B1
:04014B0000000000B0
:04014C0000000000AF
:04014D0000000000AE
:04014E0000000000AD
:04014F0000000000AC
:0401500000000000AB
:0401510000000000AA
:0401520000000000A9
:0401530000000000A8
:0401540000000000A7
:0401550000000000A6
:0401560000000000A5
:0401570000000000A4
:0401580000000000A3
:0401590000000000A2
:04015A0000000000A1
:04015B0000000000A0
:04015C00000000009F
:04015D00000000009E
:04015E00000000009D
:04015F00000000009C
:04016000000000009B
:04016100000000009A
:040162000000000099
:040163000000000098
:040164000000000097
:040165000000000096
:040166000000000095
:040167000000000094
:040168000000000093
:040169000000000092
:04016A000000000091
:04016B000000000090
:04016C00000000008F
:04016D00000000008E
:04016E00000000008D
:04016F00000000008C
:04017000000000008B
:04017100000000008A
:040172000000000089
:040173000000000088
:040174000000000087
:040175000000000086
:040176000000000085
:040177000000000084
:040178000000000083
:040179000000000082
:04017A000000000081
:04017B000000000080
:04017C00000000007F
:04017D00000000007E
:04017E00000000007D
:04017F00000000007C
:04018000000000007B
:04018100000000007A
:040182000000000079
:040183000000000078
:040184000000000077
:040185000000000076
:040186000000000075
:040187000000000074
:040188000000000073
:040189000000000072
:04018A000000000071
:04018B000000000070
:04018C00000000006F
:04018D00000000006E
:04018E00000000006D
:04018F00000000006C
:04019000000000006B
:04019100000000006A
:040192000000000069
:040193000000000068
:040194000000000067
:040195000000000066
:040196000000000065
:040197000000000064
:040198000000000063
:040199000000000062
:04019A000000000061
:04019B000000000060
:04019C00000000005F
:04019D00000000005E
:04019E00000000005D
:04019F00000000005C
:0401A000000000005B
:0401A100000000005A
:0401A2000000000059
:0401A3000000000058
:0401A4000000000057
:0401A5000000000056
:0401A6000000000055
:0401A7000000000054
:0401A8000000000053
:0401A9000000000052
:0401AA000000000051
:0401AB000000000050
:0401AC00000000004F
:0401AD00000000004E
:0401AE00000000004D
:0401AF00000000004C
:0401B000000000004B
:0401B100000000004A
:0401B2000000000049
:0401B3000000000048
:0401B4000000000047
:0401B5000000000046
:0401B6000000000045
:0401B7000000000044
:0401B8000000000043
:0401B9000000000042
:0401BA000000000041
:0401BB000000000040
:0401BC00000000003F
:0401BD00000000003E
:0401BE00000000003D
:0401BF00000000003C
:0401C000000000003B
:0401C100000000003A
:0401C2000000000039
:0401C3000000000038
:0401C4000000000037
:0401C5000000000036
:0401C6000000000035
:0401C7000000000034
:0401C8000000000033
:0401C9000000000032
:0401CA000000000031
:0401CB000000000030
:0401CC00000000002F
:0401CD00000000002E
:0401CE00000000002D
:0401CF00000000002C
:0401D000000000002B
:0401D100000000002A
:0401D2000000000029
:0401D3000000000028
:0401D4000000000027
:0401D5000000000026
:0401D6000000000025
:0401D7000000000024
:0401D8000000000023
:0401D9000000000022
:0401DA000000000021
:0401DB000000000020
:0401DC00000000001F
:0401DD00000000001E
:0401DE00000000001D
:0401DF00000000001C
:0401E000000000001B
:0401E100000000001A
:0401E2000000000019
:0401E3000000000018
:0401E4000000000017
:0401E5000000000016
:0401E6000000000015
:0401E7000000000014
:0401E8000000000013
:0401E9000000000012
:0401EA000000000011
:0401EB000000000010
:0401EC00000000000F
:0401ED00000000000E
:0401EE00000000000D
:0401EF00000000000C
:0401F000000000000B
:0401F100000000000A
:0401F2000000000009
:0401F3000000000008
:0401F4000000000007
:0401F5000000000006
:0401F6000000000005
:0401F7000000000004
:0401F8000000000003
:0401F9000000000002
:0401FA000000000001
:0401FB000000000000
:0401FC0000000000FF
:0401FD0000000000FE
:0401FE0000000000FD
:0401FF0000000000FC
:0402000000000000FA
:0402010000000000F9
:0402020000000000F8
:0402030000000000F7
:0402040000000000F6
:0402050000000000F5
:0402060000000000F4
:0402070000000000F3
:0402080000000000F2
:0402090000000000F1
:04020A0000000000F0
:04020B0000000000EF
:04020C0000000000EE
:04020D0000000000ED
:04020E0000000000EC
:04020F0000000000EB
:0402100000000000EA
:0402110000000000E9
:0402120000000000E8
:0402130000000000E7
:0402140000000000E6
:0402150000000000E5
:0402160000000000E4
:0402170000000000E3
:0402180000000000E2
:0402190000000000E1
:04021A0000000000E0
:04021B0000000000DF
:04021C0000000000DE
:04021D0000000000DD
:04021E0000000000DC
:04021F0000000000DB
:0402200000000000DA
:0402210000000000D9
:0402220000000000D8
:0402230000000000D7
:0402240000000000D6
:0402250000000000D5
:0402260000000000D4
:0402270000000000D3
:0402280000000000D2
:0402290000000000D1
:04022A0000000000D0
:04022B0000000000CF
:04022C0000000000CE
:04022D0000000000CD
:04022E0000000000CC
:04022F0000000000CB
:0402300000000000CA
:0402310000000000C9
:0402320000000000C8
:0402330000000000C7
:0402340000000000C6
:0402350000000000C5
:0402360000000000C4
:0402370000000000C3
:0402380000000000C2
:0402390000000000C1
:04023A0000000000C0
:04023B0000000000BF
:04023C0000000000BE
:04023D0000000000BD
:04023E0000000000BC
:04023F0000000000BB
:0402400000000000BA
:0402410000000000B9
:0402420000000000B8
:0402430000000000B7
:0402440000000000B6
:0402450000000000B5
:0402460000000000B4
:0402470000000000B3
:0402480000000000B2
:0402490000000000B1
:04024A0000000000B0
:04024B0000000000AF
:04024C0000000000AE
:04024D0000000000AD
:04024E0000000000AC
:04024F0000000000AB
:0402500000000000AA
:0402510000000000A9
:0402520000000000A8
:0402530000000000A7
:0402540000000000A6
:0402550000000000A5
:0402560000000000A4
:0402570000000000A3
:0402580000000000A2
:0402590000000000A1
:04025A0000000000A0
:04025B00000000009F
:04025C00000000009E
:04025D00000000009D
:04025E00000000009C
:04025F00000000009B
:04026000000000009A
:040261000000000099
:040262000000000098
:040263000000000097
:040264000000000096
:040265000000000095
:040266000000000094
:040267000000000093
:040268000000000092
:040269000000000091
:04026A000000000090
:04026B00000000008F
:04026C00000000008E
:04026D00000000008D
:04026E00000000008C
:04026F00000000008B
:04027000000000008A
:040271000000000089
:040272000000000088
:040273000000000087
:040274000000000086
:040275000000000085
:040276000000000084
:040277000000000083
:040278000000000082
:040279000000000081
:04027A000000000080
:04027B00000000007F
:04027C00000000007E
:04027D00000000007D
:04027E00000000007C
:04027F00000000007B
:04028000000000007A
:040281000000000079
:040282000000000078
:040283000000000077
:040284000000000076
:040285000000000075
:040286000000000074
:040287000000000073
:040288000000000072
:040289000000000071
:04028A000000000070
:04028B00000000006F
:04028C00000000006E
:04028D00000000006D
:04028E00000000006C
:04028F00000000006B
:04029000000000006A
:040291000000000069
:040292000000000068
:040293000000000067
:040294000000000066
:040295000000000065
:040296000000000064
:040297000000000063
:040298000000000062
:040299000000000061
:04029A000000000060
:04029B00000000005F
:04029C00000000005E
:04029D00000000005D
:04029E00000000005C
:04029F00000000005B
:0402A000000000005A
:0402A1000000000059
:0402A2000000000058
:0402A3000000000057
:0402A4000000000056
:0402A5000000000055
:0402A6000000000054
:0402A7000000000053
:0402A8000000000052
:0402A9000000000051
:0402AA000000000050
:0402AB00000000004F
:0402AC00000000004E
:0402AD00000000004D
:0402AE00000000004C
:0402AF00000000004B
:0402B000000000004A
:0402B1000000000049
:0402B2000000000048
:0402B3000000000047
:0402B4000000000046
:0402B5000000000045
:0402B6000000000044
:0402B7000000000043
:0402B8000000000042
:0402B9000000000041
:0402BA000000000040
:0402BB00000000003F
:0402BC00000000003E
:0402BD00000000003D
:0402BE00000000003C
:0402BF00000000003B
:0402C000000000003A
:0402C1000000000039
:0402C2000000000038
:0402C3000000000037
:0402C4000000000036
:0402C5000000000035
:0402C6000000000034
:0402C7000000000033
:0402C8000000000032
:0402C9000000000031
:0402CA000000000030
:0402CB00000000002F
:0402CC00000000002E
:0402CD00000000002D
:0402CE00000000002C
:0402CF00000000002B
:0402D000000000002A
:0402D1000000000029
:0402D2000000000028
:0402D3000000000027
:0402D4000000000026
:0402D5000000000025
:0402D6000000000024
:0402D7000000000023
:0402D8000000000022
:0402D9000000000021
:0402DA000000000020
:0402DB00000000001F
:0402DC00000000001E
:0402DD00000000001D
:0402DE00000000001C
:0402DF00000000001B
:0402E000000000001A
:0402E1000000000019
:0402E2000000000018
:0402E3000000000017
:0402E4000000000016
:0402E5000000000015
:0402E6000000000014
:0402E7000000000013
:0402E8000000000012
:0402E9000000000011
:0402EA000000000010
:0402EB00000000000F
:0402EC00000000000E
:0402ED00000000000D
:0402EE00000000000C
:0402EF00000000000B
:0402F000000000000A
:0402F1000000000009
:0402F2000000000008
:0402F3000000000007
:0402F4000000000006
:0402F5000000000005
:0402F6000000000004
:0402F7000000000003
:0402F8000000000002
:0402F9000000000001
:0402FA000000000000
:0402FB0000000000FF
:0402FC0000000000FE
:0402FD0000000000FD
:0402FE0000000000FC
:0402FF0000000000FB
:0403000000000000F9
:0403010000000000F8
:0403020000000000F7
:0403030000000000F6
:0403040000000000F5
:0403050000000000F4
:0403060000000000F3
:0403070000000000F2
:0403080000000000F1
:0403090000000000F0
:04030A0000000000EF
:04030B0000000000EE
:04030C0000000000ED
:04030D0000000000EC
:04030E0000000000EB
:04030F0000000000EA
:0403100000000000E9
:0403110000000000E8
:0403120000000000E7
:0403130000000000E6
:0403140000000000E5
:0403150000000000E4
:0403160000000000E3
:0403170000000000E2
:0403180000000000E1
:0403190000000000E0
:04031A0000000000DF
:04031B0000000000DE
:04031C0000000000DD
:04031D0000000000DC
:04031E0000000000DB
:04031F0000000000DA
:0403200000000000D9
:0403210000000000D8
:0403220000000000D7
:0403230000000000D6
:0403240000000000D5
:0403250000000000D4
:0403260000000000D3
:0403270000000000D2
:0403280000000000D1
:0403290000000000D0
:04032A0000000000CF
:04032B0000000000CE
:04032C0000000000CD
:04032D0000000000CC
:04032E0000000000CB
:04032F0000000000CA
:0403300000000000C9
:0403310000000000C8
:0403320000000000C7
:0403330000000000C6
:0403340000000000C5
:0403350000000000C4
:0403360000000000C3
:0403370000000000C2
:0403380000000000C1
:0403390000000000C0
:04033A0000000000BF
:04033B0000000000BE
:04033C0000000000BD
:04033D0000000000BC
:04033E0000000000BB
:04033F0000000000BA
:0403400000000000B9
:0403410000000000B8
:0403420000000000B7
:0403430000000000B6
:0403440000000000B5
:0403450000000000B4
:0403460000000000B3
:0403470000000000B2
:0403480000000000B1
:0403490000000000B0
:04034A0000000000AF
:04034B0000000000AE
:04034C0000000000AD
:04034D0000000000AC
:04034E0000000000AB
:04034F0000000000AA
:0403500000000000A9
:0403510000000000A8
:0403520000000000A7
:0403530000000000A6
:0403540000000000A5
:0403550000000000A4
:0403560000000000A3
:0403570000000000A2
:0403580000000000A1
:0403590000000000A0
:04035A00000000009F
:04035B00000000009E
:04035C00000000009D
:04035D00000000009C
:04035E00000000009B
:04035F00000000009A
:040360000000000099
:040361000000000098
:040362000000000097
:040363000000000096
:040364000000000095
:040365000000000094
:040366000000000093
:040367000000000092
:040368000000000091
:040369000000000090
:04036A00000000008F
:04036B00000000008E
:04036C00000000008D
:04036D00000000008C
:04036E00000000008B
:04036F00000000008A
:040370000000000089
:040371000000000088
:040372000000000087
:040373000000000086
:040374000000000085
:040375000000000084
:040376000000000083
:040377000000000082
:040378000000000081
:040379000000000080
:04037A00000000007F
:04037B00000000007E
:04037C00000000007D
:04037D00000000007C
:04037E00000000007B
:04037F00000000007A
:040380000000000079
:040381000000000078
:040382000000000077
:040383000000000076
:040384000000000075
:040385000000000074
:040386000000000073
:040387000000000072
:040388000000000071
:040389000000000070
:04038A00000000006F
:04038B00000000006E
:04038C00000000006D
:04038D00000000006C
:04038E00000000006B
:04038F00000000006A
:040390000000000069
:040391000000000068
:040392000000000067
:040393000000000066
:040394000000000065
:040395000000000064
:040396000000000063
:040397000000000062
:040398000000000061
:040399000000000060
:04039A00000000005F
:04039B00000000005E
:04039C00000000005D
:04039D00000000005C
:04039E00000000005B
:04039F00000000005A
:0403A0000000000059
:0403A1000000000058
:0403A2000000000057
:0403A3000000000056
:0403A4000000000055
:0403A5000000000054
:0403A6000000000053
:0403A7000000000052
:0403A8000000000051
:0403A9000000000050
:0403AA00000000004F
:0403AB00000000004E
:0403AC00000000004D
:0403AD00000000004C
:0403AE00000000004B
:0403AF00000000004A
:0403B0000000000049
:0403B1000000000048
:0403B2000000000047
:0403B3000000000046
:0403B4000000000045
:0403B5000000000044
:0403B6000000000043
:0403B7000000000042
:0403B8000000000041
:0403B9000000000040
:0403BA00000000003F
:0403BB00000000003E
:0403BC00000000003D
:0403BD00000000003C
:0403BE00000000003B
:0403BF00000000003A
:0403C0000000000039
:0403C1000000000038
:0403C2000000000037
:0403C3000000000036
:0403C4000000000035
:0403C5000000000034
:0403C6000000000033
:0403C7000000000032
:0403C8000000000031
:0403C9000000000030
:0403CA00000000002F
:0403CB00000000002E
:0403CC00000000002D
:0403CD00000000002C
:0403CE00000000002B
:0403CF00000000002A
:0403D0000000000029
:0403D1000000000028
:0403D2000000000027
:0403D3000000000026
:0403D4000000000025
:0403D5000000000024
:0403D6000000000023
:0403D7000000000022
:0403D8000000000021
:0403D9000000000020
:0403DA00000000001F
:0403DB00000000001E
:0403DC00000000001D
:0403DD00000000001C
:0403DE00000000001B
:0403DF00000000001A
:0403E0000000000019
:0403E1000000000018
:0403E2000000000017
:0403E3000000000016
:0403E4000000000015
:0403E5000000000014
:0403E6000000000013
:0403E7000000000012
:0403E8000000000011
:0403E9000000000010
:0403EA00000000000F
:0403EB00000000000E
:0403EC00000000000D
:0403ED00000000000C
:0403EE00000000000B
:0403EF00000000000A
:0403F0000000000009
:0403F1000000000008
:0403F2000000000007
:0403F3000000000006
:0403F4000000000005
:0403F5000000000004
:0403F6000000000003
:0403F7000000000002
:0403F8000000000001
:0403F9000000000000
:0403FA0000000000FF
:0403FB0000000000FE
:0403FC0000000000FD
:0403FD0000000000FC
:0403FE0000000000FB
:0403FF0000000000FA
:0404000000000000F8
:0404010000000000F7
:0404020000000000F6
:0404030000000000F5
:0404040000000000F4
:0404050000000000F3
:0404060000000000F2
:0404070000000000F1
:0404080000000000F0
:0404090000000000EF
:04040A0000000000EE
:04040B0000000000ED
:04040C0000000000EC
:04040D0000000000EB
:04040E0000000000EA
:04040F0000000000E9
:0404100000000000E8
:0404110000000000E7
:0404120000000000E6
:0404130000000000E5
:0404140000000000E4
:0404150000000000E3
:0404160000000000E2
:0404170000000000E1
:0404180000000000E0
:0404190000000000DF
:04041A0000000000DE
:04041B0000000000DD
:04041C0000000000DC
:04041D0000000000DB
:04041E0000000000DA
:04041F0000000000D9
:0404200000000000D8
:0404210000000000D7
:0404220000000000D6
:0404230000000000D5
:0404240000000000D4
:0404250000000000D3
:0404260000000000D2
:0404270000000000D1
:0404280000000000D0
:0404290000000000CF
:04042A0000000000CE
:04042B0000000000CD
:04042C0000000000CC
:04042D0000000000CB
:04042E0000000000CA
:04042F0000000000C9
:0404300000000000C8
:0404310000000000C7
:0404320000000000C6
:0404330000000000C5
:0404340000000000C4
:0404350000000000C3
:0404360000000000C2
:0404370000000000C1
:0404380000000000C0
:0404390000000000BF
:04043A0000000000BE
:04043B0000000000BD
:04043C0000000000BC
:04043D0000000000BB
:04043E0000000000BA
:04043F0000000000B9
:0404400000000000B8
:0404410000000000B7
:0404420000000000B6
:0404430000000000B5
:0404440000000000B4
:0404450000000000B3
:0404460000000000B2
:0404470000000000B1
:0404480000000000B0
:0404490000000000AF
:04044A0000000000AE
:04044B0000000000AD
:04044C0000000000AC
:04044D0000000000AB
:04044E0000000000AA
:04044F0000000000A9
:0404500000000000A8
:0404510000000000A7
:0404520000000000A6
:0404530000000000A5
:0404540000000000A4
:0404550000000000A3
:0404560000000000A2
:0404570000000000A1
:0404580000000000A0
:04045900000000009F
:04045A00000000009E
:04045B00000000009D
:04045C00000000009C
:04045D00000000009B
:04045E00000000009A
:04045F000000000099
:040460000000000098
:040461000000000097
:040462000000000096
:040463000000000095
:040464000000000094
:040465000000000093
:040466000000000092
:040467000000000091
:040468000000000090
:04046900000000008F
:04046A00000000008E
:04046B00000000008D
:04046C00000000008C
:04046D00000000008B
:04046E00000000008A
:04046F000000000089
:040470000000000088
:040471000000000087
:040472000000000086
:040473000000000085
:040474000000000084
:040475000000000083
:040476000000000082
:040477000000000081
:040478000000000080
:04047900000000007F
:04047A00000000007E
:04047B00000000007D
:04047C00000000007C
:04047D00000000007B
:04047E00000000007A
:04047F000000000079
:040480000000000078
:040481000000000077
:040482000000000076
:040483000000000075
:040484000000000074
:040485000000000073
:040486000000000072
:040487000000000071
:040488000000000070
:04048900000000006F
:04048A00000000006E
:04048B00000000006D
:04048C00000000006C
:04048D00000000006B
:04048E00000000006A
:04048F000000000069
:040490000000000068
:040491000000000067
:040492000000000066
:040493000000000065
:040494000000000064
:040495000000000063
:040496000000000062
:040497000000000061
:040498000000000060
:04049900000000005F
:04049A00000000005E
:04049B00000000005D
:04049C00000000005C
:04049D00000000005B
:04049E00000000005A
:04049F000000000059
:0404A0000000000058
:0404A1000000000057
:0404A2000000000056
:0404A3000000000055
:0404A4000000000054
:0404A5000000000053
:0404A6000000000052
:0404A7000000000051
:0404A8000000000050
:0404A900000000004F
:0404AA00000000004E
:0404AB00000000004D
:0404AC00000000004C
:0404AD00000000004B
:0404AE00000000004A
:0404AF000000000049
:0404B0000000000048
:0404B1000000000047
:0404B2000000000046
:0404B3000000000045
:0404B4000000000044
:0404B5000000000043
:0404B6000000000042
:0404B7000000000041
:0404B8000000000040
:0404B900000000003F
:0404BA00000000003E
:0404BB00000000003D
:0404BC00000000003C
:0404BD00000000003B
:0404BE00000000003A
:0404BF000000000039
:0404C0000000000038
:0404C1000000000037
:0404C2000000000036
:0404C3000000000035
:0404C4000000000034
:0404C5000000000033
:0404C6000000000032
:0404C7000000000031
:0404C8000000000030
:0404C900000000002F
:0404CA00000000002E
:0404CB00000000002D
:0404CC00000000002C
:0404CD00000000002B
:0404CE00000000002A
:0404CF000000000029
:0404D0000000000028
:0404D1000000000027
:0404D2000000000026
:0404D3000000000025
:0404D4000000000024
:0404D5000000000023
:0404D6000000000022
:0404D7000000000021
:0404D8000000000020
:0404D900000000001F
:0404DA00000000001E
:0404DB00000000001D
:0404DC00000000001C
:0404DD00000000001B
:0404DE00000000001A
:0404DF000000000019
:0404E0000000000018
:0404E1000000000017
:0404E2000000000016
:0404E3000000000015
:0404E4000000000014
:0404E5000000000013
:0404E6000000000012
:0404E7000000000011
:0404E8000000000010
:0404E900000000000F
:0404EA00000000000E
:0404EB00000000000D
:0404EC00000000000C
:0404ED00000000000B
:0404EE00000000000A
:0404EF000000000009
:0404F0000000000008
:0404F1000000000007
:0404F2000000000006
:0404F3000000000005
:0404F4000000000004
:0404F5000000000003
:0404F6000000000002
:0404F7000000000001
:0404F8000000000000
:0404F90000000000FF
:0404FA0000000000FE
:0404FB0000000000FD
:0404FC0000000000FC
:0404FD0000000000FB
:0404FE0000000000FA
:0404FF0000000000F9
:0405000000000000F7
:0405010000000000F6
:0405020000000000F5
:0405030000000000F4
:0405040000000000F3
:0405050000000000F2
:0405060000000000F1
:0405070000000000F0
:0405080000000000EF
:0405090000000000EE
:04050A0000000000ED
:04050B0000000000EC
:04050C0000000000EB
:04050D0000000000EA
:04050E0000000000E9
:04050F0000000000E8
:0405100000000000E7
:0405110000000000E6
:0405120000000000E5
:0405130000000000E4
:0405140000000000E3
:0405150000000000E2
:0405160000000000E1
:0405170000000000E0
:0405180000000000DF
:0405190000000000DE
:04051A0000000000DD
:04051B0000000000DC
:04051C0000000000DB
:04051D0000000000DA
:04051E0000000000D9
:04051F0000000000D8
:0405200000000000D7
:0405210000000000D6
:0405220000000000D5
:0405230000000000D4
:0405240000000000D3
:0405250000000000D2
:0405260000000000D1
:0405270000000000D0
:0405280000000000CF
:0405290000000000CE
:04052A0000000000CD
:04052B0000000000CC
:04052C0000000000CB
:04052D0000000000CA
:04052E0000000000C9
:04052F0000000000C8
:0405300000000000C7
:0405310000000000C6
:0405320000000000C5
:0405330000000000C4
:0405340000000000C3
:0405350000000000C2
:0405360000000000C1
:0405370000000000C0
:0405380000000000BF
:0405390000000000BE
:04053A0000000000BD
:04053B0000000000BC
:04053C0000000000BB
:04053D0000000000BA
:04053E0000000000B9
:04053F0000000000B8
:0405400000000000B7
:0405410000000000B6
:0405420000000000B5
:0405430000000000B4
:0405440000000000B3
:0405450000000000B2
:0405460000000000B1
:0405470000000000B0
:0405480000000000AF
:0405490000000000AE
:04054A0000000000AD
:04054B0000000000AC
:04054C0000000000AB
:04054D0000000000AA
:04054E0000000000A9
:04054F0000000000A8
:0405500000000000A7
:0405510000000000A6
:0405520000000000A5
:0405530000000000A4
:0405540000000000A3
:0405550000000000A2
:0405560000000000A1
:0405570000000000A0
:04055800000000009F
:04055900000000009E
:04055A00000000009D
:04055B00000000009C
:04055C00000000009B
:04055D00000000009A
:04055E000000000099
:04055F000000000098
:040560000000000097
:040561000000000096
:040562000000000095
:040563000000000094
:040564000000000093
:040565000000000092
:040566000000000091
:040567000000000090
:04056800000000008F
:04056900000000008E
:04056A00000000008D
:04056B00000000008C
:04056C00000000008B
:04056D00000000008A
:04056E000000000089
:04056F000000000088
:040570000000000087
:040571000000000086
:040572000000000085
:040573000000000084
:040574000000000083
:040575000000000082
:040576000000000081
:040577000000000080
:04057800000000007F
:04057900000000007E
:04057A00000000007D
:04057B00000000007C
:04057C00000000007B
:04057D00000000007A
:04057E000000000079
:04057F000000000078
:040580000000000077
:040581000000000076
:040582000000000075
:040583000000000074
:040584000000000073
:040585000000000072
:040586000000000071
:040587000000000070
:04058800000000006F
:04058900000000006E
:04058A00000000006D
:04058B00000000006C
:04058C00000000006B
:04058D00000000006A
:04058E000000000069
:04058F000000000068
:040590000000000067
:040591000000000066
:040592000000000065
:040593000000000064
:040594000000000063
:040595000000000062
:040596000000000061
:040597000000000060
:04059800000000005F
:04059900000000005E
:04059A00000000005D
:04059B00000000005C
:04059C00000000005B
:04059D00000000005A
:04059E000000000059
:04059F000000000058
:0405A0000000000057
:0405A1000000000056
:0405A2000000000055
:0405A3000000000054
:0405A4000000000053
:0405A5000000000052
:0405A6000000000051
:0405A7000000000050
:0405A800000000004F
:0405A900000000004E
:0405AA00000000004D
:0405AB00000000004C
:0405AC00000000004B
:0405AD00000000004A
:0405AE000000000049
:0405AF000000000048
:0405B0000000000047
:0405B1000000000046
:0405B2000000000045
:0405B3000000000044
:0405B4000000000043
:0405B5000000000042
:0405B6000000000041
:0405B7000000000040
:0405B800000000003F
:0405B900000000003E
:0405BA00000000003D
:0405BB00000000003C
:0405BC00000000003B
:0405BD00000000003A
:0405BE000000000039
:0405BF000000000038
:0405C0000000000037
:0405C1000000000036
:0405C2000000000035
:0405C3000000000034
:0405C4000000000033
:0405C5000000000032
:0405C6000000000031
:0405C7000000000030
:0405C800000000002F
:0405C900000000002E
:0405CA00000000002D
:0405CB00000000002C
:0405CC00000000002B
:0405CD00000000002A
:0405CE000000000029
:0405CF000000000028
:0405D0000000000027
:0405D1000000000026
:0405D2000000000025
:0405D3000000000024
:0405D4000000000023
:0405D5000000000022
:0405D6000000000021
:0405D7000000000020
:0405D800000000001F
:0405D900000000001E
:0405DA00000000001D
:0405DB00000000001C
:0405DC00000000001B
:0405DD00000000001A
:0405DE000000000019
:0405DF000000000018
:0405E0000000000017
:0405E1000000000016
:0405E2000000000015
:0405E3000000000014
:0405E4000000000013
:0405E5000000000012
:0405E6000000000011
:0405E7000000000010
:0405E800000000000F
:0405E900000000000E
:0405EA00000000000D
:0405EB00000000000C
:0405EC00000000000B
:0405ED00000000000A
:0405EE000000000009
:0405EF000000000008
:0405F0000000000007
:0405F1000000000006
:0405F2000000000005
:0405F3000000000004
:0405F4000000000003
:0405F5000000000002
:0405F6000000000001
:0405F7000000000000
:0405F80000000000FF
:0405F90000000000FE
:0405FA0000000000FD
:0405FB0000000000FC
:0405FC0000000000FB
:0405FD0000000000FA
:0405FE0000000000F9
:0405FF0000000000F8
:0406000000000000F6
:0406010000000000F5
:0406020000000000F4
:0406030000000000F3
:0406040000000000F2
:0406050000000000F1
:0406060000000000F0
:0406070000000000EF
:0406080000000000EE
:0406090000000000ED
:04060A0000000000EC
:04060B0000000000EB
:04060C0000000000EA
:04060D0000000000E9
:04060E0000000000E8
:04060F0000000000E7
:0406100000000000E6
:0406110000000000E5
:0406120000000000E4
:0406130000000000E3
:0406140000000000E2
:0406150000000000E1
:0406160000000000E0
:0406170000000000DF
:0406180000000000DE
:0406190000000000DD
:04061A0000000000DC
:04061B0000000000DB
:04061C0000000000DA
:04061D0000000000D9
:04061E0000000000D8
:04061F0000000000D7
:0406200000000000D6
:0406210000000000D5
:0406220000000000D4
:0406230000000000D3
:0406240000000000D2
:0406250000000000D1
:0406260000000000D0
:0406270000000000CF
:0406280000000000CE
:0406290000000000CD
:04062A0000000000CC
:04062B0000000000CB
:04062C0000000000CA
:04062D0000000000C9
:04062E0000000000C8
:04062F0000000000C7
:0406300000000000C6
:0406310000000000C5
:0406320000000000C4
:0406330000000000C3
:0406340000000000C2
:0406350000000000C1
:0406360000000000C0
:0406370000000000BF
:0406380000000000BE
:0406390000000000BD
:04063A0000000000BC
:04063B0000000000BB
:04063C0000000000BA
:04063D0000000000B9
:04063E0000000000B8
:04063F0000000000B7
:0406400000000000B6
:0406410000000000B5
:0406420000000000B4
:0406430000000000B3
:0406440000000000B2
:0406450000000000B1
:0406460000000000B0
:0406470000000000AF
:0406480000000000AE
:0406490000000000AD
:04064A0000000000AC
:04064B0000000000AB
:04064C0000000000AA
:04064D0000000000A9
:04064E0000000000A8
:04064F0000000000A7
:0406500000000000A6
:0406510000000000A5
:0406520000000000A4
:0406530000000000A3
:0406540000000000A2
:0406550000000000A1
:0406560000000000A0
:04065700000000009F
:04065800000000009E
:04065900000000009D
:04065A00000000009C
:04065B00000000009B
:04065C00000000009A
:04065D000000000099
:04065E000000000098
:04065F000000000097
:040660000000000096
:040661000000000095
:040662000000000094
:040663000000000093
:040664000000000092
:040665000000000091
:040666000000000090
:04066700000000008F
:04066800000000008E
:04066900000000008D
:04066A00000000008C
:04066B00000000008B
:04066C00000000008A
:04066D000000000089
:04066E000000000088
:04066F000000000087
:040670000000000086
:040671000000000085
:040672000000000084
:040673000000000083
:040674000000000082
:040675000000000081
:040676000000000080
:04067700000000007F
:04067800000000007E
:04067900000000007D
:04067A00000000007C
:04067B00000000007B
:04067C00000000007A
:04067D000000000079
:04067E000000000078
:04067F000000000077
:040680000000000076
:040681000000000075
:040682000000000074
:040683000000000073
:040684000000000072
:040685000000000071
:040686000000000070
:04068700000000006F
:04068800000000006E
:04068900000000006D
:04068A00000000006C
:04068B00000000006B
:04068C00000000006A
:04068D000000000069
:04068E000000000068
:04068F000000000067
:040690000000000066
:040691000000000065
:040692000000000064
:040693000000000063
:040694000000000062
:040695000000000061
:040696000000000060
:04069700000000005F
:04069800000000005E
:04069900000000005D
:04069A00000000005C
:04069B00000000005B
:04069C00000000005A
:04069D000000000059
:04069E000000000058
:04069F000000000057
:0406A0000000000056
:0406A1000000000055
:0406A2000000000054
:0406A3000000000053
:0406A4000000000052
:0406A5000000000051
:0406A6000000000050
:0406A700000000004F
:0406A800000000004E
:0406A900000000004D
:0406AA00000000004C
:0406AB00000000004B
:0406AC00000000004A
:0406AD000000000049
:0406AE000000000048
:0406AF000000000047
:0406B0000000000046
:0406B1000000000045
:0406B2000000000044
:0406B3000000000043
:0406B4000000000042
:0406B5000000000041
:0406B6000000000040
:0406B700000000003F
:0406B800000000003E
:0406B900000000003D
:0406BA00000000003C
:0406BB00000000003B
:0406BC00000000003A
:0406BD000000000039
:0406BE000000000038
:0406BF000000000037
:0406C0000000000036
:0406C1000000000035
:0406C2000000000034
:0406C3000000000033
:0406C4000000000032
:0406C5000000000031
:0406C6000000000030
:0406C700000000002F
:0406C800000000002E
:0406C900000000002D
:0406CA00000000002C
:0406CB00000000002B
:0406CC00000000002A
:0406CD000000000029
:0406CE000000000028
:0406CF000000000027
:0406D0000000000026
:0406D1000000000025
:0406D2000000000024
:0406D3000000000023
:0406D4000000000022
:0406D5000000000021
:0406D6000000000020
:0406D700000000001F
:0406D800000000001E
:0406D900000000001D
:0406DA00000000001C
:0406DB00000000001B
:0406DC00000000001A
:0406DD000000000019
:0406DE000000000018
:0406DF000000000017
:0406E0000000000016
:0406E1000000000015
:0406E2000000000014
:0406E3000000000013
:0406E4000000000012
:0406E5000000000011
:0406E6000000000010
:0406E700000000000F
:0406E800000000000E
:0406E900000000000D
:0406EA00000000000C
:0406EB00000000000B
:0406EC00000000000A
:0406ED000000000009
:0406EE000000000008
:0406EF000000000007
:0406F0000000000006
:0406F1000000000005
:0406F2000000000004
:0406F3000000000003
:0406F4000000000002
:0406F5000000000001
:0406F6000000000000
:0406F70000000000FF
:0406F80000000000FE
:0406F90000000000FD
:0406FA0000000000FC
:0406FB0000000000FB
:0406FC0000000000FA
:0406FD0000000000F9
:0406FE0000000000F8
:0406FF0000000000F7
:0407000000000000F5
:0407010000000000F4
:0407020000000000F3
:0407030000000000F2
:0407040000000000F1
:0407050000000000F0
:0407060000000000EF
:0407070000000000EE
:0407080000000000ED
:0407090000000000EC
:04070A0000000000EB
:04070B0000000000EA
:04070C0000000000E9
:04070D0000000000E8
:04070E0000000000E7
:04070F0000000000E6
:0407100000000000E5
:0407110000000000E4
:0407120000000000E3
:0407130000000000E2
:0407140000000000E1
:0407150000000000E0
:0407160000000000DF
:0407170000000000DE
:0407180000000000DD
:0407190000000000DC
:04071A0000000000DB
:04071B0000000000DA
:04071C0000000000D9
:04071D0000000000D8
:04071E0000000000D7
:04071F0000000000D6
:0407200000000000D5
:0407210000000000D4
:0407220000000000D3
:0407230000000000D2
:0407240000000000D1
:0407250000000000D0
:0407260000000000CF
:0407270000000000CE
:0407280000000000CD
:0407290000000000CC
:04072A0000000000CB
:04072B0000000000CA
:04072C0000000000C9
:04072D0000000000C8
:04072E0000000000C7
:04072F0000000000C6
:0407300000000000C5
:0407310000000000C4
:0407320000000000C3
:0407330000000000C2
:0407340000000000C1
:0407350000000000C0
:0407360000000000BF
:0407370000000000BE
:0407380000000000BD
:0407390000000000BC
:04073A0000000000BB
:04073B0000000000BA
:04073C0000000000B9
:04073D0000000000B8
:04073E0000000000B7
:04073F0000000000B6
:0407400000000000B5
:0407410000000000B4
:0407420000000000B3
:0407430000000000B2
:0407440000000000B1
:0407450000000000B0
:0407460000000000AF
:0407470000000000AE
:0407480000000000AD
:0407490000000000AC
:04074A0000000000AB
:04074B0000000000AA
:04074C0000000000A9
:04074D0000000000A8
:04074E0000000000A7
:04074F0000000000A6
:0407500000000000A5
:0407510000000000A4
:0407520000000000A3
:0407530000000000A2
:0407540000000000A1
:0407550000000000A0
:04075600000000009F
:04075700000000009E
:04075800000000009D
:04075900000000009C
:04075A00000000009B
:04075B00000000009A
:04075C000000000099
:04075D000000000098
:04075E000000000097
:04075F000000000096
:040760000000000095
:040761000000000094
:040762000000000093
:040763000000000092
:040764000000000091
:040765000000000090
:04076600000000008F
:04076700000000008E
:04076800000000008D
:04076900000000008C
:04076A00000000008B
:04076B00000000008A
:04076C000000000089
:04076D000000000088
:04076E000000000087
:04076F000000000086
:040770000000000085
:040771000000000084
:040772000000000083
:040773000000000082
:040774000000000081
:040775000000000080
:04077600000000007F
:04077700000000007E
:04077800000000007D
:04077900000000007C
:04077A00000000007B
:04077B00000000007A
:04077C000000000079
:04077D000000000078
:04077E000000000077
:04077F000000000076
:040780000000000075
:040781000000000074
:040782000000000073
:040783000000000072
:040784000000000071
:040785000000000070
:04078600000000006F
:04078700000000006E
:04078800000000006D
:04078900000000006C
:04078A00000000006B
:04078B00000000006A
:04078C000000000069
:04078D000000000068
:04078E000000000067
:04078F000000000066
:040790000000000065
:040791000000000064
:040792000000000063
:040793000000000062
:040794000000000061
:040795000000000060
:04079600000000005F
:04079700000000005E
:04079800000000005D
:04079900000000005C
:04079A00000000005B
:04079B00000000005A
:04079C000000000059
:04079D000000000058
:04079E000000000057
:04079F000000000056
:0407A0000000000055
:0407A1000000000054
:0407A2000000000053
:0407A3000000000052
:0407A4000000000051
:0407A5000000000050
:0407A600000000004F
:0407A700000000004E
:0407A800000000004D
:0407A900000000004C
:0407AA00000000004B
:0407AB00000000004A
:0407AC000000000049
:0407AD000000000048
:0407AE000000000047
:0407AF000000000046
:0407B0000000000045
:0407B1000000000044
:0407B2000000000043
:0407B3000000000042
:0407B4000000000041
:0407B5000000000040
:0407B600000000003F
:0407B700000000003E
:0407B800000000003D
:0407B900000000003C
:0407BA00000000003B
:0407BB00000000003A
:0407BC000000000039
:0407BD000000000038
:0407BE000000000037
:0407BF000000000036
:0407C0000000000035
:0407C1000000000034
:0407C2000000000033
:0407C3000000000032
:0407C4000000000031
:0407C5000000000030
:0407C600000000002F
:0407C700000000002E
:0407C800000000002D
:0407C900000000002C
:0407CA00000000002B
:0407CB00000000002A
:0407CC000000000029
:0407CD000000000028
:0407CE000000000027
:0407CF000000000026
:0407D0000000000025
:0407D1000000000024
:0407D2000000000023
:0407D3000000000022
:0407D4000000000021
:0407D5000000000020
:0407D600000000001F
:0407D700000000001E
:0407D800000000001D
:0407D900000000001C
:0407DA00000000001B
:0407DB00000000001A
:0407DC000000000019
:0407DD000000000018
:0407DE000000000017
:0407DF000000000016
:0407E0000000000015
:0407E1000000000014
:0407E2000000000013
:0407E3000000000012
:0407E4000000000011
:0407E5000000000010
:0407E600000000000F
:0407E700000000000E
:0407E800000000000D
:0407E900000000000C
:0407EA00000000000B
:0407EB00000000000A
:0407EC000000000009
:0407ED000000000008
:0407EE000000000007
:0407EF000000000006
:0407F0000000000005
:0407F1000000000004
:0407F2000000000003
:0407F3000000000002
:0407F4000000000001
:0407F5000000000000
:0407F60000000000FF
:0407F70000000000FE
:0407F80000000000FD
:0407F90000000000FC
:0407FA0000000000FB
:0407FB0000000000FA
:0407FC0000000000F9
:0407FD0000000000F8
:0407FE0000000000F7
:0407FF0000000000F6
:0408000000000000F4
:0408010000000000F3
:0408020000000000F2
:0408030000000000F1
:0408040000000000F0
:0408050000000000EF
:0408060000000000EE
:0408070000000000ED
:0408080000000000EC
:0408090000000000EB
:04080A0000000000EA
:04080B0000000000E9
:04080C0000000000E8
:04080D0000000000E7
:04080E0000000000E6
:04080F0000000000E5
:0408100000000000E4
:0408110000000000E3
:0408120000000000E2
:0408130000000000E1
:0408140000000000E0
:0408150000000000DF
:0408160000000000DE
:0408170000000000DD
:0408180000000000DC
:0408190000000000DB
:04081A0000000000DA
:04081B0000000000D9
:04081C0000000000D8
:04081D0000000000D7
:04081E0000000000D6
:04081F0000000000D5
:0408200000000000D4
:0408210000000000D3
:0408220000000000D2
:0408230000000000D1
:0408240000000000D0
:0408250000000000CF
:0408260000000000CE
:0408270000000000CD
:0408280000000000CC
:0408290000000000CB
:04082A0000000000CA
:04082B0000000000C9
:04082C0000000000C8
:04082D0000000000C7
:04082E0000000000C6
:04082F0000000000C5
:0408300000000000C4
:0408310000000000C3
:0408320000000000C2
:0408330000000000C1
:0408340000000000C0
:0408350000000000BF
:0408360000000000BE
:0408370000000000BD
:0408380000000000BC
:0408390000000000BB
:04083A0000000000BA
:04083B0000000000B9
:04083C0000000000B8
:04083D0000000000B7
:04083E0000000000B6
:04083F0000000000B5
:0408400000000000B4
:0408410000000000B3
:0408420000000000B2
:0408430000000000B1
:0408440000000000B0
:0408450000000000AF
:0408460000000000AE
:0408470000000000AD
:0408480000000000AC
:0408490000000000AB
:04084A0000000000AA
:04084B0000000000A9
:04084C0000000000A8
:04084D0000000000A7
:04084E0000000000A6
:04084F0000000000A5
:0408500000000000A4
:0408510000000000A3
:0408520000000000A2
:0408530000000000A1
:0408540000000000A0
:04085500000000009F
:04085600000000009E
:04085700000000009D
:04085800000000009C
:04085900000000009B
:04085A00000000009A
:04085B000000000099
:04085C000000000098
:04085D000000000097
:04085E000000000096
:04085F000000000095
:040860000000000094
:040861000000000093
:040862000000000092
:040863000000000091
:040864000000000090
:04086500000000008F
:04086600000000008E
:04086700000000008D
:04086800000000008C
:04086900000000008B
:04086A00000000008A
:04086B000000000089
:04086C000000000088
:04086D000000000087
:04086E000000000086
:04086F000000000085
:040870000000000084
:040871000000000083
:040872000000000082
:040873000000000081
:040874000000000080
:04087500000000007F
:04087600000000007E
:04087700000000007D
:04087800000000007C
:04087900000000007B
:04087A00000000007A
:04087B000000000079
:04087C000000000078
:04087D000000000077
:04087E000000000076
:04087F000000000075
:040880000000000074
:040881000000000073
:040882000000000072
:040883000000000071
:040884000000000070
:04088500000000006F
:04088600000000006E
:04088700000000006D
:04088800000000006C
:04088900000000006B
:04088A00000000006A
:04088B000000000069
:04088C000000000068
:04088D000000000067
:04088E000000000066
:04088F000000000065
:040890000000000064
:040891000000000063
:040892000000000062
:040893000000000061
:040894000000000060
:04089500000000005F
:04089600000000005E
:04089700000000005D
:04089800000000005C
:04089900000000005B
:04089A00000000005A
:04089B000000000059
:04089C000000000058
:04089D000000000057
:04089E000000000056
:04089F000000000055
:0408A0000000000054
:0408A1000000000053
:0408A2000000000052
:0408A3000000000051
:0408A4000000000050
:0408A500000000004F
:0408A600000000004E
:0408A700000000004D
:0408A800000000004C
:0408A900000000004B
:0408AA00000000004A
:0408AB000000000049
:0408AC000000000048
:0408AD000000000047
:0408AE000000000046
:0408AF000000000045
:0408B0000000000044
:0408B1000000000043
:0408B2000000000042
:0408B3000000000041
:0408B4000000000040
:0408B500000000003F
:0408B600000000003E
:0408B700000000003D
:0408B800000000003C
:0408B900000000003B
:0408BA00000000003A
:0408BB000000000039
:0408BC000000000038
:0408BD000000000037
:0408BE000000000036
:0408BF000000000035
:0408C0000000000034
:0408C1000000000033
:0408C2000000000032
:0408C3000000000031
:0408C4000000000030
:0408C500000000002F
:0408C600000000002E
:0408C700000000002D
:0408C800000000002C
:0408C900000000002B
:0408CA00000000002A
:0408CB000000000029
:0408CC000000000028
:0408CD000000000027
:0408CE000000000026
:0408CF000000000025
:0408D0000000000024
:0408D1000000000023
:0408D2000000000022
:0408D3000000000021
:0408D4000000000020
:0408D500000000001F
:0408D600000000001E
:0408D700000000001D
:0408D800000000001C
:0408D900000000001B
:0408DA00000000001A
:0408DB000000000019
:0408DC000000000018
:0408DD000000000017
:0408DE000000000016
:0408DF000000000015
:0408E0000000000014
:0408E1000000000013
:0408E2000000000012
:0408E3000000000011
:0408E4000000000010
:0408E500000000000F
:0408E600000000000E
:0408E700000000000D
:0408E800000000000C
:0408E900000000000B
:0408EA00000000000A
:0408EB000000000009
:0408EC000000000008
:0408ED000000000007
:0408EE000000000006
:0408EF000000000005
:0408F0000000000004
:0408F1000000000003
:0408F2000000000002
:0408F3000000000001
:0408F4000000000000
:0408F50000000000FF
:0408F60000000000FE
:0408F70000000000FD
:0408F80000000000FC
:0408F90000000000FB
:0408FA0000000000FA
:0408FB0000000000F9
:0408FC0000000000F8
:0408FD0000000000F7
:0408FE0000000000F6
:0408FF0000000000F5
:0409000000000000F3
:0409010000000000F2
:0409020000000000F1
:0409030000000000F0
:0409040000000000EF
:0409050000000000EE
:0409060000000000ED
:0409070000000000EC
:0409080000000000EB
:0409090000000000EA
:04090A0000000000E9
:04090B0000000000E8
:04090C0000000000E7
:04090D0000000000E6
:04090E0000000000E5
:04090F0000000000E4
:0409100000000000E3
:0409110000000000E2
:0409120000000000E1
:0409130000000000E0
:0409140000000000DF
:0409150000000000DE
:0409160000000000DD
:0409170000000000DC
:0409180000000000DB
:0409190000000000DA
:04091A0000000000D9
:04091B0000000000D8
:04091C0000000000D7
:04091D0000000000D6
:04091E0000000000D5
:04091F0000000000D4
:0409200000000000D3
:0409210000000000D2
:0409220000000000D1
:0409230000000000D0
:0409240000000000CF
:0409250000000000CE
:0409260000000000CD
:0409270000000000CC
:0409280000000000CB
:0409290000000000CA
:04092A0000000000C9
:04092B0000000000C8
:04092C0000000000C7
:04092D0000000000C6
:04092E0000000000C5
:04092F0000000000C4
:0409300000000000C3
:0409310000000000C2
:0409320000000000C1
:0409330000000000C0
:0409340000000000BF
:0409350000000000BE
:0409360000000000BD
:0409370000000000BC
:0409380000000000BB
:0409390000000000BA
:04093A0000000000B9
:04093B0000000000B8
:04093C0000000000B7
:04093D0000000000B6
:04093E0000000000B5
:04093F0000000000B4
:0409400000000000B3
:0409410000000000B2
:0409420000000000B1
:0409430000000000B0
:0409440000000000AF
:0409450000000000AE
:0409460000000000AD
:0409470000000000AC
:0409480000000000AB
:0409490000000000AA
:04094A0000000000A9
:04094B0000000000A8
:04094C0000000000A7
:04094D0000000000A6
:04094E0000000000A5
:04094F0000000000A4
:0409500000000000A3
:0409510000000000A2
:0409520000000000A1
:0409530000000000A0
:04095400000000009F
:04095500000000009E
:04095600000000009D
:04095700000000009C
:04095800000000009B
:04095900000000009A
:04095A000000000099
:04095B000000000098
:04095C000000000097
:04095D000000000096
:04095E000000000095
:04095F000000000094
:040960000000000093
:040961000000000092
:040962000000000091
:040963000000000090
:04096400000000008F
:04096500000000008E
:04096600000000008D
:04096700000000008C
:04096800000000008B
:04096900000000008A
:04096A000000000089
:04096B000000000088
:04096C000000000087
:04096D000000000086
:04096E000000000085
:04096F000000000084
:040970000000000083
:040971000000000082
:040972000000000081
:040973000000000080
:04097400000000007F
:04097500000000007E
:04097600000000007D
:04097700000000007C
:04097800000000007B
:04097900000000007A
:04097A000000000079
:04097B000000000078
:04097C000000000077
:04097D000000000076
:04097E000000000075
:04097F000000000074
:040980000000000073
:040981000000000072
:040982000000000071
:040983000000000070
:04098400000000006F
:04098500000000006E
:04098600000000006D
:04098700000000006C
:04098800000000006B
:04098900000000006A
:04098A000000000069
:04098B000000000068
:04098C000000000067
:04098D000000000066
:04098E000000000065
:04098F000000000064
:040990000000000063
:040991000000000062
:040992000000000061
:040993000000000060
:04099400000000005F
:04099500000000005E
:04099600000000005D
:04099700000000005C
:04099800000000005B
:04099900000000005A
:04099A000000000059
:04099B000000000058
:04099C000000000057
:04099D000000000056
:04099E000000000055
:04099F000000000054
:0409A0000000000053
:0409A1000000000052
:0409A2000000000051
:0409A3000000000050
:0409A400000000004F
:0409A500000000004E
:0409A600000000004D
:0409A700000000004C
:0409A800000000004B
:0409A900000000004A
:0409AA000000000049
:0409AB000000000048
:0409AC000000000047
:0409AD000000000046
:0409AE000000000045
:0409AF000000000044
:0409B0000000000043
:0409B1000000000042
:0409B2000000000041
:0409B3000000000040
:0409B400000000003F
:0409B500000000003E
:0409B600000000003D
:0409B700000000003C
:0409B800000000003B
:0409B900000000003A
:0409BA000000000039
:0409BB000000000038
:0409BC000000000037
:0409BD000000000036
:0409BE000000000035
:0409BF000000000034
:0409C0000000000033
:0409C1000000000032
:0409C2000000000031
:0409C3000000000030
:0409C400000000002F
:0409C500000000002E
:0409C600000000002D
:0409C700000000002C
:0409C800000000002B
:0409C900000000002A
:0409CA000000000029
:0409CB000000000028
:0409CC000000000027
:0409CD000000000026
:0409CE000000000025
:0409CF000000000024
:0409D0000000000023
:0409D1000000000022
:0409D2000000000021
:0409D3000000000020
:0409D400000000001F
:0409D500000000001E
:0409D600000000001D
:0409D700000000001C
:0409D800000000001B
:0409D900000000001A
:0409DA000000000019
:0409DB000000000018
:0409DC000000000017
:0409DD000000000016
:0409DE000000000015
:0409DF000000000014
:0409E0000000000013
:0409E1000000000012
:0409E2000000000011
:0409E3000000000010
:0409E400000000000F
:0409E500000000000E
:0409E600000000000D
:0409E700000000000C
:0409E800000000000B
:0409E900000000000A
:0409EA000000000009
:0409EB000000000008
:0409EC000000000007
:0409ED000000000006
:0409EE000000000005
:0409EF000000000004
:0409F0000000000003
:0409F1000000000002
:0409F2000000000001
:0409F3000000000000
:0409F40000000000FF
:0409F50000000000FE
:0409F60000000000FD
:0409F70000000000FC
:0409F80000000000FB
:0409F90000000000FA
:0409FA0000000000F9
:0409FB0000000000F8
:0409FC0000000000F7
:0409FD0000000000F6
:0409FE0000000000F5
:0409FF0000000000F4
:040A000000000000F2
:040A010000000000F1
:040A020000000000F0
:040A030000000000EF
:040A040000000000EE
:040A050000000000ED
:040A060000000000EC
:040A070000000000EB
:040A080000000000EA
:040A090000000000E9
:040A0A0000000000E8
:040A0B0000000000E7
:040A0C0000000000E6
:040A0D0000000000E5
:040A0E0000000000E4
:040A0F0000000000E3
:040A100000000000E2
:040A110000000000E1
:040A120000000000E0
:040A130000000000DF
:040A140000000000DE
:040A150000000000DD
:040A160000000000DC
:040A170000000000DB
:040A180000000000DA
:040A190000000000D9
:040A1A0000000000D8
:040A1B0000000000D7
:040A1C0000000000D6
:040A1D0000000000D5
:040A1E0000000000D4
:040A1F0000000000D3
:040A200000000000D2
:040A210000000000D1
:040A220000000000D0
:040A230000000000CF
:040A240000000000CE
:040A250000000000CD
:040A260000000000CC
:040A270000000000CB
:040A280000000000CA
:040A290000000000C9
:040A2A0000000000C8
:040A2B0000000000C7
:040A2C0000000000C6
:040A2D0000000000C5
:040A2E0000000000C4
:040A2F0000000000C3
:040A300000000000C2
:040A310000000000C1
:040A320000000000C0
:040A330000000000BF
:040A340000000000BE
:040A350000000000BD
:040A360000000000BC
:040A370000000000BB
:040A380000000000BA
:040A390000000000B9
:040A3A0000000000B8
:040A3B0000000000B7
:040A3C0000000000B6
:040A3D0000000000B5
:040A3E0000000000B4
:040A3F0000000000B3
:040A400000000000B2
:040A410000000000B1
:040A420000000000B0
:040A430000000000AF
:040A440000000000AE
:040A450000000000AD
:040A460000000000AC
:040A470000000000AB
:040A480000000000AA
:040A490000000000A9
:040A4A0000000000A8
:040A4B0000000000A7
:040A4C0000000000A6
:040A4D0000000000A5
:040A4E0000000000A4
:040A4F0000000000A3
:040A500000000000A2
:040A510000000000A1
:040A520000000000A0
:040A5300000000009F
:040A5400000000009E
:040A5500000000009D
:040A5600000000009C
:040A5700000000009B
:040A5800000000009A
:040A59000000000099
:040A5A000000000098
:040A5B000000000097
:040A5C000000000096
:040A5D000000000095
:040A5E000000000094
:040A5F000000000093
:040A60000000000092
:040A61000000000091
:040A62000000000090
:040A6300000000008F
:040A6400000000008E
:040A6500000000008D
:040A6600000000008C
:040A6700000000008B
:040A6800000000008A
:040A69000000000089
:040A6A000000000088
:040A6B000000000087
:040A6C000000000086
:040A6D000000000085
:040A6E000000000084
:040A6F000000000083
:040A70000000000082
:040A71000000000081
:040A72000000000080
:040A7300000000007F
:040A7400000000007E
:040A7500000000007D
:040A7600000000007C
:040A7700000000007B
:040A7800000000007A
:040A79000000000079
:040A7A000000000078
:040A7B000000000077
:040A7C000000000076
:040A7D000000000075
:040A7E000000000074
:040A7F000000000073
:040A80000000000072
:040A81000000000071
:040A82000000000070
:040A8300000000006F
:040A8400000000006E
:040A8500000000006D
:040A8600000000006C
:040A8700000000006B
:040A8800000000006A
:040A89000000000069
:040A8A000000000068
:040A8B000000000067
:040A8C000000000066
:040A8D000000000065
:040A8E000000000064
:040A8F000000000063
:040A90000000000062
:040A91000000000061
:040A92000000000060
:040A9300000000005F
:040A9400000000005E
:040A9500000000005D
:040A9600000000005C
:040A9700000000005B
:040A9800000000005A
:040A99000000000059
:040A9A000000000058
:040A9B000000000057
:040A9C000000000056
:040A9D000000000055
:040A9E000000000054
:040A9F000000000053
:040AA0000000000052
:040AA1000000000051
:040AA2000000000050
:040AA300000000004F
:040AA400000000004E
:040AA500000000004D
:040AA600000000004C
:040AA700000000004B
:040AA800000000004A
:040AA9000000000049
:040AAA000000000048
:040AAB000000000047
:040AAC000000000046
:040AAD000000000045
:040AAE000000000044
:040AAF000000000043
:040AB0000000000042
:040AB1000000000041
:040AB2000000000040
:040AB300000000003F
:040AB400000000003E
:040AB500000000003D
:040AB600000000003C
:040AB700000000003B
:040AB800000000003A
:040AB9000000000039
:040ABA000000000038
:040ABB000000000037
:040ABC000000000036
:040ABD000000000035
:040ABE000000000034
:040ABF000000000033
:040AC0000000000032
:040AC1000000000031
:040AC2000000000030
:040AC300000000002F
:040AC400000000002E
:040AC500000000002D
:040AC600000000002C
:040AC700000000002B
:040AC800000000002A
:040AC9000000000029
:040ACA000000000028
:040ACB000000000027
:040ACC000000000026
:040ACD000000000025
:040ACE000000000024
:040ACF000000000023
:040AD0000000000022
:040AD1000000000021
:040AD2000000000020
:040AD300000000001F
:040AD400000000001E
:040AD500000000001D
:040AD600000000001C
:040AD700000000001B
:040AD800000000001A
:040AD9000000000019
:040ADA000000000018
:040ADB000000000017
:040ADC000000000016
:040ADD000000000015
:040ADE000000000014
:040ADF000000000013
:040AE0000000000012
:040AE1000000000011
:040AE2000000000010
:040AE300000000000F
:040AE400000000000E
:040AE500000000000D
:040AE600000000000C
:040AE700000000000B
:040AE800000000000A
:040AE9000000000009
:040AEA000000000008
:040AEB000000000007
:040AEC000000000006
:040AED000000000005
:040AEE000000000004
:040AEF000000000003
:040AF0000000000002
:040AF1000000000001
:040AF2000000000000
:040AF30000000000FF
:040AF40000000000FE
:040AF50000000000FD
:040AF60000000000FC
:040AF70000000000FB
:040AF80000000000FA
:040AF90000000000F9
:040AFA0000000000F8
:040AFB0000000000F7
:040AFC0000000000F6
:040AFD0000000000F5
:040AFE0000000000F4
:040AFF0000000000F3
:040B000000000000F1
:040B010000000000F0
:040B020000000000EF
:040B030000000000EE
:040B040000000000ED
:040B050000000000EC
:040B060000000000EB
:040B070000000000EA
:040B080000000000E9
:040B090000000000E8
:040B0A0000000000E7
:040B0B0000000000E6
:040B0C0000000000E5
:040B0D0000000000E4
:040B0E0000000000E3
:040B0F0000000000E2
:040B100000000000E1
:040B110000000000E0
:040B120000000000DF
:040B130000000000DE
:040B140000000000DD
:040B150000000000DC
:040B160000000000DB
:040B170000000000DA
:040B180000000000D9
:040B190000000000D8
:040B1A0000000000D7
:040B1B0000000000D6
:040B1C0000000000D5
:040B1D0000000000D4
:040B1E0000000000D3
:040B1F0000000000D2
:040B200000000000D1
:040B210000000000D0
:040B220000000000CF
:040B230000000000CE
:040B240000000000CD
:040B250000000000CC
:040B260000000000CB
:040B270000000000CA
:040B280000000000C9
:040B290000000000C8
:040B2A0000000000C7
:040B2B0000000000C6
:040B2C0000000000C5
:040B2D0000000000C4
:040B2E0000000000C3
:040B2F0000000000C2
:040B300000000000C1
:040B310000000000C0
:040B320000000000BF
:040B330000000000BE
:040B340000000000BD
:040B350000000000BC
:040B360000000000BB
:040B370000000000BA
:040B380000000000B9
:040B390000000000B8
:040B3A0000000000B7
:040B3B0000000000B6
:040B3C0000000000B5
:040B3D0000000000B4
:040B3E0000000000B3
:040B3F0000000000B2
:040B400000000000B1
:040B410000000000B0
:040B420000000000AF
:040B430000000000AE
:040B440000000000AD
:040B450000000000AC
:040B460000000000AB
:040B470000000000AA
:040B480000000000A9
:040B490000000000A8
:040B4A0000000000A7
:040B4B0000000000A6
:040B4C0000000000A5
:040B4D0000000000A4
:040B4E0000000000A3
:040B4F0000000000A2
:040B500000000000A1
:040B510000000000A0
:040B5200000000009F
:040B5300000000009E
:040B5400000000009D
:040B5500000000009C
:040B5600000000009B
:040B5700000000009A
:040B58000000000099
:040B59000000000098
:040B5A000000000097
:040B5B000000000096
:040B5C000000000095
:040B5D000000000094
:040B5E000000000093
:040B5F000000000092
:040B60000000000091
:040B61000000000090
:040B6200000000008F
:040B6300000000008E
:040B6400000000008D
:040B6500000000008C
:040B6600000000008B
:040B6700000000008A
:040B68000000000089
:040B69000000000088
:040B6A000000000087
:040B6B000000000086
:040B6C000000000085
:040B6D000000000084
:040B6E000000000083
:040B6F000000000082
:040B70000000000081
:040B71000000000080
:040B7200000000007F
:040B7300000000007E
:040B7400000000007D
:040B7500000000007C
:040B7600000000007B
:040B7700000000007A
:040B78000000000079
:040B79000000000078
:040B7A000000000077
:040B7B000000000076
:040B7C000000000075
:040B7D000000000074
:040B7E000000000073
:040B7F000000000072
:040B80000000000071
:040B81000000000070
:040B8200000000006F
:040B8300000000006E
:040B8400000000006D
:040B8500000000006C
:040B8600000000006B
:040B8700000000006A
:040B88000000000069
:040B89000000000068
:040B8A000000000067
:040B8B000000000066
:040B8C000000000065
:040B8D000000000064
:040B8E000000000063
:040B8F000000000062
:040B90000000000061
:040B91000000000060
:040B9200000000005F
:040B9300000000005E
:040B9400000000005D
:040B9500000000005C
:040B9600000000005B
:040B9700000000005A
:040B98000000000059
:040B99000000000058
:040B9A000000000057
:040B9B000000000056
:040B9C000000000055
:040B9D000000000054
:040B9E000000000053
:040B9F000000000052
:040BA0000000000051
:040BA1000000000050
:040BA200000000004F
:040BA300000000004E
:040BA400000000004D
:040BA500000000004C
:040BA600000000004B
:040BA700000000004A
:040BA8000000000049
:040BA9000000000048
:040BAA000000000047
:040BAB000000000046
:040BAC000000000045
:040BAD000000000044
:040BAE000000000043
:040BAF000000000042
:040BB0000000000041
:040BB1000000000040
:040BB200000000003F
:040BB300000000003E
:040BB400000000003D
:040BB500000000003C
:040BB600000000003B
:040BB700000000003A
:040BB8000000000039
:040BB9000000000038
:040BBA000000000037
:040BBB000000000036
:040BBC000000000035
:040BBD000000000034
:040BBE000000000033
:040BBF000000000032
:040BC0000000000031
:040BC1000000000030
:040BC200000000002F
:040BC300000000002E
:040BC400000000002D
:040BC500000000002C
:040BC600000000002B
:040BC700000000002A
:040BC8000000000029
:040BC9000000000028
:040BCA000000000027
:040BCB000000000026
:040BCC000000000025
:040BCD000000000024
:040BCE000000000023
:040BCF000000000022
:040BD0000000000021
:040BD1000000000020
:040BD200000000001F
:040BD300000000001E
:040BD400000000001D
:040BD500000000001C
:040BD600000000001B
:040BD700000000001A
:040BD8000000000019
:040BD9000000000018
:040BDA000000000017
:040BDB000000000016
:040BDC000000000015
:040BDD000000000014
:040BDE000000000013
:040BDF000000000012
:040BE0000000000011
:040BE1000000000010
:040BE200000000000F
:040BE300000000000E
:040BE400000000000D
:040BE500000000000C
:040BE600000000000B
:040BE700000000000A
:040BE8000000000009
:040BE9000000000008
:040BEA000000000007
:040BEB000000000006
:040BEC000000000005
:040BED000000000004
:040BEE000000000003
:040BEF000000000002
:040BF0000000000001
:040BF1000000000000
:040BF20000000000FF
:040BF30000000000FE
:040BF40000000000FD
:040BF50000000000FC
:040BF60000000000FB
:040BF70000000000FA
:040BF80000000000F9
:040BF90000000000F8
:040BFA0000000000F7
:040BFB0000000000F6
:040BFC0000000000F5
:040BFD0000000000F4
:040BFE0000000000F3
:040BFF0000000000F2
:040C000000000000F0
:040C010000000000EF
:040C020000000000EE
:040C030000000000ED
:040C040000000000EC
:040C050000000000EB
:040C060000000000EA
:040C070000000000E9
:040C080000000000E8
:040C090000000000E7
:040C0A0000000000E6
:040C0B0000000000E5
:040C0C0000000000E4
:040C0D0000000000E3
:040C0E0000000000E2
:040C0F0000000000E1
:040C100000000000E0
:040C110000000000DF
:040C120000000000DE
:040C130000000000DD
:040C140000000000DC
:040C150000000000DB
:040C160000000000DA
:040C170000000000D9
:040C180000000000D8
:040C190000000000D7
:040C1A0000000000D6
:040C1B0000000000D5
:040C1C0000000000D4
:040C1D0000000000D3
:040C1E0000000000D2
:040C1F0000000000D1
:040C200000000000D0
:040C210000000000CF
:040C220000000000CE
:040C230000000000CD
:040C240000000000CC
:040C250000000000CB
:040C260000000000CA
:040C270000000000C9
:040C280000000000C8
:040C290000000000C7
:040C2A0000000000C6
:040C2B0000000000C5
:040C2C0000000000C4
:040C2D0000000000C3
:040C2E0000000000C2
:040C2F0000000000C1
:040C300000000000C0
:040C310000000000BF
:040C320000000000BE
:040C330000000000BD
:040C340000000000BC
:040C350000000000BB
:040C360000000000BA
:040C370000000000B9
:040C380000000000B8
:040C390000000000B7
:040C3A0000000000B6
:040C3B0000000000B5
:040C3C0000000000B4
:040C3D0000000000B3
:040C3E0000000000B2
:040C3F0000000000B1
:040C400000000000B0
:040C410000000000AF
:040C420000000000AE
:040C430000000000AD
:040C440000000000AC
:040C450000000000AB
:040C460000000000AA
:040C470000000000A9
:040C480000000000A8
:040C490000000000A7
:040C4A0000000000A6
:040C4B0000000000A5
:040C4C0000000000A4
:040C4D0000000000A3
:040C4E0000000000A2
:040C4F0000000000A1
:040C500000000000A0
:040C5100000000009F
:040C5200000000009E
:040C5300000000009D
:040C5400000000009C
:040C5500000000009B
:040C5600000000009A
:040C57000000000099
:040C58000000000098
:040C59000000000097
:040C5A000000000096
:040C5B000000000095
:040C5C000000000094
:040C5D000000000093
:040C5E000000000092
:040C5F000000000091
:040C60000000000090
:040C6100000000008F
:040C6200000000008E
:040C6300000000008D
:040C6400000000008C
:040C6500000000008B
:040C6600000000008A
:040C67000000000089
:040C68000000000088
:040C69000000000087
:040C6A000000000086
:040C6B000000000085
:040C6C000000000084
:040C6D000000000083
:040C6E000000000082
:040C6F000000000081
:040C70000000000080
:040C7100000000007F
:040C7200000000007E
:040C7300000000007D
:040C7400000000007C
:040C7500000000007B
:040C7600000000007A
:040C77000000000079
:040C78000000000078
:040C79000000000077
:040C7A000000000076
:040C7B000000000075
:040C7C000000000074
:040C7D000000000073
:040C7E000000000072
:040C7F000000000071
